:020000040000fa
:080000000002040000000000f2
:020000040000fa
:100008009402000094020000940200009402000090
:100018009402000094020000940200009402000080
:100028009402000094020000940200009402000070
:100038009402000094020000940200009402000060
:020000040000fa
:020000040000fa
:100400002f8020000eff20000e0188000000000059
:1004100000012000200288000c000700e0452000b9
:100420000100200011000700000020000000e00093
:100430000200320000000200000000000003020081
:10044000000000000040da000000fe004440a90067
:10045000000020000000e000030032000000200047
:10046000a00188004440a800000006009101880017
:10047000800078000000eb0015003700e2804000ab
:1004800032a0b4009101ba00e280400032a0b40072
:100490009102ba00e280400032a0b4000002eb00fa
:1004a000472bde00f507b200602ce10004003a00a3
:1004b0000059eb008301e900fdff3e000400370016
:1004c0006128e100010032000082eb000400070017
:1004d0001101ba000200e000e8ff3a000000060047
:1004e0003159ba008301e9000c0032002159ba00e9
:1004f0008301e900080032000400e00003003a0034
:10050000e280400032a0b400f5ff370011d9ba00f4
:100510008301e900faff3a008100e800e180400031
:1005200032a0b400000006000040da000000fe0027
:020000040000fa
:100530000000fa000002eb00840888000002eb00d3
:10054000940888000002eb00540888000002eb00c9
:10055000340888008500a9001061a80011e1a800f6
:100560000080fa00000006000800fa00200798004a
:1005700031079800be02900004fa200004aab900d6
:10058000040378002e0290006022b9000402780073
:1005900004034300ae02900004fa2000042ab800cd
:1005a0000503430086027800048fbe00048fbe005e
:1005b0000002eb00340888000002eb0054088800b9
:1005c0001e02be00402ade00050020000402780062
:1005d000740888001e02780064088800000000008b
:1005e000250480000410200004826200e00f520005
:1005f000fbff32008500a9000080fa000000060021
:100600000000fa00caff0700f40f2000041688005b
:100610000002eb00042788000002eb00441688006b
:100620000002eb006416880001003700200007007c
:100630001416800062026200e00f5200fbff3200dd
:100640000200070000000000f9ff37000600fa0072
:100650000002eb00040f7800a42a20001407980081
:1006600054152000240798000002eb00040f7800c6
:10067000090037001e02780004024200040247000d
:10068000140290006416880040062000010020003b
:10069000b5ff07001e0fe8001e027800e10f5200b0
:1006a000f4ff3400040078000080fa000000060027
:1006b0000000fa00f4ff200064168800204e20009d
:1006c00001002000a8ff07000002eb00641688006c
:1006d0000403200064168800204e20000100200042
:1006e000a1ff07000002eb0064168800f4ff200061
:1006f00064168800204e2000010020009aff0700a9
:100700000002eb0064168800204e2000010020004b
:1007100095ff0700f4ff200064168800204e20009b
:100720000100200090ff07000002eb006416880023
:100730003433200064168800204e20000100200081
:1007400089ff07000002eb006416880034332000a4
:1007500064168800204e20000100200082ff070060
:100760000002eb0064168800204e200001002000eb
:100770007dff0700f4ff200064168800204e200053
:100780000100200078ff07000002eb0064168800db
:100790000430200064168800204e20000100200054
:1007a00071ff07000002eb0064168800043020008f
:1007b00064168800204e2000010020006aff070018
:1007c0000002eb0064168800204e2000010020008b
:1007d00065ff0700f4ff200064168800204e20000b
:1007e0000100200060ff07000002eb006416880093
:1007f0000430200064168800204e200001002000f4
:1008000059ff07000002eb00641688000430200046
:1008100064168800204e20000100200052ff0700cf
:100820000002eb0064168800204e2000010020002a
:100830004dff0700f4ff200064168800204e2000c2
:100840000100200048ff07000002eb00641688004a
:100850003430200064168800204e20000100200063
:1008600041ff07000002eb006416880034302000ce
:1008700064168800204e2000010020003aff070087
:100880000002eb0064168800f4ff20006416880064
:10089000204e20000100200033ff07000002eb0083
:1008a00064168800204e2000010020002eff070063
:0c08b000040078000080fa000000060040
:020000040000fa
:1008bc000008000002000000000000000000000022
:020000040000fa
:0200000401f009
:04000c0058ff000099
:020000040000fa
:0200000401f009
:04001000fbff0000f2
:020000040000fa
:0200000401f009
:040014005fff00008a
:020000040000fa
:0200000401f009
:04001c00ffff0000e2
:020000040000fa
:0200000401f009
:040020007fff00005e
:00000001FF
