:020000040000fa
:080000000002040000000000f2
:020000040000fa
:100008009402000094020000940200009402000090
:100018009402000094020000940200009402000080
:100028009402000094020000940200009402000070
:100038009402000094020000940200009402000060
:020000040000fa
:020000040000fa
:10040000cf8020000eff20000e01880000000000b9
:1004100000012000200288000c000700e07b200083
:100420000100200011000700000020000000e00093
:1004300002003200000002000000000098020200ea
:10044000000000000040da000000fe004440a90067
:10045000000020000000e000030032000000200047
:10046000a00188004440a800000006009101880017
:10047000800078000000eb0015003700e2804000ab
:1004800032a0b4009101ba00e280400032a0b40072
:100490009102ba00e280400032a0b4000002eb00fa
:1004a000472bde00f507b200602ce10004003a00a3
:1004b0000059eb008301e900fdff3e000400370016
:1004c0006128e100010032000082eb000400070017
:1004d0001101ba000200e000e8ff3a000000060047
:1004e0003159ba008301e9000c0032002159ba00e9
:1004f0008301e900080032000400e00003003a0034
:10050000e280400032a0b400f5ff370011d9ba00f4
:100510008301e900faff3a008100e800e180400031
:1005200032a0b400000006000040da000000fe0027
:020000040000fa
:100530000000fa0005000700a7000700dd00070023
:10054000ef010700f5010700fbff37000000fa008c
:100550000421a900240880000440a0000450a00049
:100560002408880004192000140888000002eb0009
:10057000040888008460a90005e1a800cd02a90054
:10058000c902a900ccc2a900c8c2a900e004a80001
:100590000002eb00041a88000002eb00441a8800f5
:1005a0000002eb00841a880024f02100241a88003d
:1005b0000002eb00141a880041e3a8004023a800c1
:1005c00010002000de0107004023a9000000000009
:1005d000041a800061026200e00f5200fcff32004a
:1005e0000418800004408800e284a800e064a800a9
:1005f000e044a800c942a900cd42a900c9e2a9006f
:10060000cde2a900c9c2a900cdc2a800240d800076
:100610000400a1000410a1000420a100240d880002
:1006200004408000540d8800240d800004a0a10027
:1006300004b0a10004c0a100240d8800240d800096
:100640000400a1000410a0000420a000240d8800d4
:10065000c962a900cd62a900c9a2a900cda2a900c2
:10066000c982a900cd82a800d40c80000400a1009a
:100670000410a1000420a100d40c880004408000d4
:10068000040d8800d40c800004a0a10004b0a100d7
:1006900004c0a100d40c8800d40c80000400a10088
:1006a0000410a0000420a000d40c880011e1a900cf
:1006b0001021a90010c1a900840880000440a100f5
:1006c0000450a000840888000002eb003408880071
:1006d000044020006408880084e0a90011e1a8001b
:1006e000c8e2a900cce2a900840c80000400a100ab
:1006f0000410a1000420a100840c8800a42820007c
:10070000b40c8800840c800004a0a00004b0a100f8
:1007100004c0a100840c8800840c80000400a100a7
:100720000410a0000420a000840c8800950c800018
:1007300004fe2f0004826200d400b300940c8800f1
:1007400013e1a9001221a90012c1a9009408800098
:100750000440a0000450a100940888000002eb00af
:100760005408880004712200740888008500a900dc
:1007700013e1a800e024a8000002eb00041a88009e
:100780000002eb00441a88000002eb00841a880083
:1007900024f02100241a88000002eb00141a8800bb
:1007a00041e3a8004023a8001000200064010700d6
:1007b0004023a90000000000041a800061026200ca
:1007c000e00f5200fcff3200041880001440880043
:1007d0000080fa00000006000000fa00f40020008b
:1007e000441a88004023a80050002000540107004c
:1007f0004023a90000000000041a8000610262008a
:10080000e00f5200fcff32000418800024408800f2
:10081000d4002000441a88004023a8005000200083
:10082000470107004023a90000000000041a8000cf
:1008300061026200e00f5200fcff320004188000e9
:10084000344088000002eb00441a88004023a800ce
:10085000100020003a0107004023a900000000001a
:10086000041a800061026200e00f5200fcff3200b7
:10087000041880000440880014002000441a8800f6
:100880004023a800100020002d0107004023a900ec
:1008900000000000041a800061026200e00f5200b4
:1008a000fcff320004188000144088000080fa0029
:1008b000000006000000fa0025408000940220009d
:1008c000848f5200ff003e0035408000540220001b
:1008d000848f5200fb003e0054408000e00f520025
:1008e0000e003a00010037003d010700254080005e
:1008f00094022000848f520004003e0035408000a6
:1009000054022000848f5200f7ff360054408000cc
:100910000402e80054408800f7003700544080008b
:10092000e10f52005e003a007a01070082010700e1
:1009300080bb200002010700a7ff0700010037006d
:10094000270107002540800094022000848f520078
:1009500004003e003540800054022000848f520085
:10096000f7ff360015408000e4132000848f52000a
:1009700020003e000002eb0044408800cd02a800a9
:10098000010037002201070025408000a40220005a
:10099000848f52000700360035408000640220003a
:1009a000848f5200f7ff3e00030037001801070054
:1009b0000100370000000000254080009402200064
:1009c000848f5200f9ff3600354080005402200029
:1009d000848f5200f5ff3600010037000c0107003c
:1009e00025408000a4022000848f5200fbff3e00bf
:1009f000270037001540800064142000848f5200c7
:100a0000200036002400200044408800ccc2a8000a
:100a1000010037000401070025408000a4022000e7
:100a2000848f5200070036003540800064022000a9
:100a3000848f5200f7ff3e0003003700fa000700e2
:100a400001003700000000002540800094022000d3
:100a5000848f5200f9ff3600354080005402200098
:100a6000848f5200f5ff360001003700ee000700ca
:100a70003540800064022000848f5200fbff3e005e
:100a8000030037001400200044408800d400070011
:100a9000544080000402e80054408800960037006b
:100aa00054408000e20f520007003a00190107008d
:100ab00026010700f5000700544080000402e8000a
:100ac000544088008c00370054408000e30f5200ef
:100ad0005d003a0001003700c1000700254080009a
:100ae00094022000848f520004003e0035408000b4
:100af00054022000848f5200f7ff360044408000eb
:100b0000e20f52001d003a0001003700c00007004c
:100b100025408000a4022000848f52000700360088
:100b20003540800064022000848f5200f7ff3e00b1
:100b300003003700b6000700010037000000000086
:100b40002540800094022000848f5200f9ff360077
:100b50003540800054022000848f5200f5ff36009b
:100b600001003700aa00070025408000a4022000f1
:100b7000848f5200fbff3e002d0037004440800070
:100b8000e00f52001d003a0001003700a6000700e8
:100b900025408000a4022000848f52000700360008
:100ba0003540800064022000848f5200f7ff3e0031
:100bb000030037009c000700010037000000000020
:100bc0002540800094022000848f5200f9ff3600f7
:100bd0003540800054022000848f5200f5ff36001b
:100be00001003700900007003540800064022000bb
:100bf000848f5200fbff3e000d0037004440800010
:100c0000e10f52000a003a000100370074000700ab
:100c10002540800094022000848f520004003e0092
:100c20003540800054022000848f5200f7ff3600c8
:100c3000544080000402e800544088002e00370031
:100c40006700070001003700000000002540800019
:100c500094022000848f5200f9ff36003540800056
:100c600054022000848f5200f5ff36000100370047
:100c70005b00070025408000a4022000848f520002
:100c8000fbff3e003540800064022000848f52004c
:100c9000f7ff3e00010037005700070025408000a5
:100ca00094022000848f5200fbff36003540800004
:100cb00054022000848f5200f7ff36009500070091
:100cc000feff37003540800054022000848f520020
:100cd00002003e0054000700070037002540800056
:100ce00094022000848f520002003e00480007005a
:100cf000010037003a0007000080fa0000000600fb
:100d00000000fa0004408000540d88000440800078
:100d1000040d88000080fa00000006000000fa00c0
:100d2000000000002404800068026200e00f52000e
:100d3000fcff32008460a9000080fa000000060079
:100d40000200fa00000f780002003700a00f09002f
:100d5000000000001e02780004f0a7000402ea0070
:100d60000402ea004f22de00044278001e0fe90070
:100d7000e04f5200f5ff3a000080fa000000060044
:100d80000000fa00cd62a800cda2a800cd82a90083
:100d90000080fa00000006000000fa00cd42a80022
:100da000cde2a900cdc2a8000080fa000000060034
:100db0000000fa00cd62a800cda2a900cd82a80053
:100dc0000080fa00000006000000fa00cd42a800f2
:100dd000cde2a800cdc2a9000080fa000000060004
:100de0000000fa00ecff0700f1ff07007afe0700a1
:100df0000080fa00000006000000fa00f2ff070081
:100e0000dfff070074fe07000080fa000000060004
:100e10000000fa00daff0700dfff07006efe0700a0
:100e20000080fa00000006000000fa00e6ff07005c
:100e3000dfff070068fe07000080fa0000000600e0
:100e40000000fa0001003700f7ff0700354080007e
:100e500054022000848f5200fbff360025408000a2
:100e600094022000848f5200f7ff36000100370003
:100e7000edff07003540800064022000848f52009f
:100e8000fbff3e000080fa00000006000000fa00b0
:100e9000d9ff0700401f2000a9ff0700010037000d
:100ea000e1ff07003540800064022000848f52007b
:100eb0000700360025408000a4022000848f5200e5
:100ec000f7ff3e0003003700d7ff0700010037009f
:100ed000000000003540800054022000848f520042
:100ee000f9ff36002540800094022000848f5200d4
:100ef000f5ff360001003700cbff070035408000ca
:100f000064022000848f5200fbff3e000080fa0044
:100f1000000006000000fa00cd62a800cda2a800e3
:100f2000cd82a800cd42a800cde2a800cdc2a80085
:100f30000080fa00000006000000fa00944c200037
:100f4000b40c88000080fa00000006000000fa00df
:100f5000f0ff0700401f200079ff07004438200001
:100f6000b40c8800401f200075ff0700a428200053
:0c0f7000b40c88000080fa0000000600ad
:020000040000fa
:100f7c00000800000a000000000000000a08000041
:100f8c000200000002000000000000000000000051
:020000040000fa
:0200000401f009
:04000c0058ff000099
:020000040000fa
:0200000401f009
:04001000fbff0000f2
:020000040000fa
:0200000401f009
:040014005fff00008a
:020000040000fa
:0200000401f009
:04001c00ffff0000e2
:020000040000fa
:0200000401f009
:040020007fff00005e
:00000001FF
