:020000040000fa
:080000000002040000000000f2
:020000040000fa
:100008009402000094020000940200009402000090
:100018009402000094020000940200009402000080
:100028009402000094020000940200009402000070
:100038009402000094020000940200009402000060
:020000040000fa
:020000040000fa
:100400006f8020000eff20000e0188000000000019
:1004100000012000200288000c00070000352000a9
:100420000100200011000700000020000000e00093
:1004300002003200000002000000000098020200ea
:10044000000000000040da000000fe004440a90067
:10045000000020000000e000030032000000200047
:10046000a00188004440a800000006009101880017
:10047000800078000000eb0015003700e2804000ab
:1004800032a0b4009101ba00e280400032a0b40072
:100490009102ba00e280400032a0b4000002eb00fa
:1004a000472bde00f507b200602ce10004003a00a3
:1004b0000059eb008301e900fdff3e000400370016
:1004c0006128e100010032000082eb000400070017
:1004d0001101ba000200e000e8ff3a000000060047
:1004e0003159ba008301e9000c0032002159ba00e9
:1004f0008301e900080032000400e00003003a0034
:10050000e280400032a0b400f5ff370011d9ba00f4
:100510008301e900faff3a008100e800e180400031
:1005200032a0b400000006000040da000000fe0027
:020000040000fa
:100530000000fa002700070039000700140020001f
:1005400064168800244080000400780044000700fe
:100550000002eb00044088000a003700300007006a
:100560006416800004024200641688002440800063
:10057000040078003a000700044080000402e8000c
:100580000440880004408000ea0f5200f3ff360068
:100590000002eb00044088000a003700200007003a
:1005a000641680000402d100641688002440800094
:1005b000040078002a000700044080000402e800dc
:1005c0000440880004408000e90f5200f3ff360029
:1005d000d9ff37000000fa000002eb004416880043
:1005e0000002eb0064168800e004a8000002eb00a3
:1005f000041a88000002eb00441a88000002eb0095
:10060000841a880024f02100241a88000002eb00dc
:10061000141a880041e3a8000080fa0000000600d8
:100620000000fa000002eb00441a88004023a800f2
:10063000100020000a0007004023a900000000006d
:10064000041a800061026200e00f5200fcff3200d9
:1006500004188000244088000080fa000000060092
:100660000200fa00000f780002003700a00f090016
:10067000000000001e02780004f0a7000402ea0057
:100680000402ea004f22de00044278001e0fe90057
:10069000e04f5200f5ff3a000080fa00000006002b
:020000040000fa
:1006a000000800000600000000000000000000003c
:020000040000fa
:0200000401f009
:04000c0058ff000099
:020000040000fa
:0200000401f009
:04001000fbff0000f2
:020000040000fa
:0200000401f009
:040014005fff00008a
:020000040000fa
:0200000401f009
:04001c00ffff0000e2
:020000040000fa
:0200000401f009
:040020007fff00005e
:00000001FF
