:020000040000fa
:080000000002040000000000f2
:020000040000fa
:100008009402000094020000940200009402000090
:100018009402000094020000940200009402000080
:100028009402000094020000940200009402000070
:100038009402000094020000940200009402000060
:020000040000fa
:020000040000fa
:10040000ef8320000eff20000e0188000000000096
:1004100000012000200288000c000700c0332000eb
:100420000100200011000700000020000000e00093
:100430000200320000000200000000000003020081
:10044000000000000040da000000fe004440a90067
:10045000000020000000e000030032000000200047
:10046000a00188004440a800000006009101880017
:10047000800078000000eb0015003700e2804000ab
:1004800032a0b4009101ba00e280400032a0b40072
:100490009102ba00e280400032a0b4000002eb00fa
:1004a000472bde00f507b200602ce10004003a00a3
:1004b0000059eb008301e900fdff3e000400370016
:1004c0006128e100010032000082eb000400070017
:1004d0001101ba000200e000e8ff3a000000060047
:1004e0003159ba008301e9000c0032002159ba00e9
:1004f0008301e900080032000400e00003003a0034
:10050000e280400032a0b400f5ff370011d9ba00f4
:100510008301e900faff3a008100e800e180400031
:1005200032a0b400000006000040da000000fe0027
:020000040000fa
:100530000000fa000002eb00840888000002eb00d3
:10054000940888000002eb00540888000002eb00c9
:10055000340888008500a9001061a80011e1a800f6
:100560000080fa00000006000800fa00200798004a
:1005700031079800be02900004fa200004aab900d6
:10058000040378002e0290006022b9000402780073
:1005900004034300ae02900004fa2000042ab800cd
:1005a0000503430086027800048fbe00048fbe005e
:1005b0000002eb00340888000002eb0054088800b9
:1005c0001e02be00402ade00050020000402780062
:1005d000740888001e02780064088800000000008b
:1005e000250480000410200004826200e00f520005
:1005f000fbff32008500a9000080fa000000060021
:100600000000fa00caff07000002eb004416880051
:100610000002eb00e44188000c003700e441800058
:100620008402420004802000048242001402780008
:10063000541688002003200001002000caff070094
:10064000e44180000402e800e4418800e4418000c5
:10065000fd0f5200f1ff3600f40f20005416880001
:100660006022200001002000bfff07000002eb0015
:0806700054168800ffff37005b
:020000040000fa
:100678003c08000002000000000000000008000024
:100688003c00000002000000ff0008000008000015
:10069800ff00000000000000ff0089000089000042
:1006a8008900000000000000ff00800000800000ba
:1006b8008000000000000000ff00800000800000b3
:1006c8008000000000000000ff00810000810000a1
:0c06d800ff00ff0000ff00000000000019
:020000040000fa
:0200000401f009
:04000c0058ff000099
:020000040000fa
:0200000401f009
:04001000fbff0000f2
:020000040000fa
:0200000401f009
:040014005fff00008a
:020000040000fa
:0200000401f009
:04001c00ffff0000e2
:020000040000fa
:0200000401f009
:040020007fff00005e
:00000001FF
