:020000040000fa
:080000000002040000000000f2
:020000040000fa
:100008009402000094020000940200009402000090
:100018009402000094020000940200009402000080
:100028009402000094020000940200009402000070
:100038009402000094020000940200009402000060
:020000040000fa
:020000040000fa
:100400006f8020000eff20000e0188000000000019
:1004100000012000200288000c000700e0432000bb
:100420000100200011000700000020000000e00093
:100430000200320000000200000000000003020081
:10044000000000000040da000000fe004440a90067
:10045000000020000000e000030032000000200047
:10046000a00188004440a800000006009101880017
:10047000800078000000eb0015003700e2804000ab
:1004800032a0b4009101ba00e280400032a0b40072
:100490009102ba00e280400032a0b4000002eb00fa
:1004a000472bde00f507b200602ce10004003a00a3
:1004b0000059eb008301e900fdff3e000400370016
:1004c0006128e100010032000082eb000400070017
:1004d0001101ba000200e000e8ff3a000000060047
:1004e0003159ba008301e9000c0032002159ba00e9
:1004f0008301e900080032000400e00003003a0034
:10050000e280400032a0b400f5ff370011d9ba00f4
:100510008301e900faff3a008100e800e180400031
:1005200032a0b400000006000040da000000fe0027
:020000040000fa
:100530000000fa000002eb00840888000002eb00d3
:10054000940888000002eb00540888000002eb00c9
:10055000340888008500a9001061a80011e1a800f6
:100560000080fa00000006000800fa00200798004a
:1005700031079800be02900004fa200004aab900d6
:10058000040378002e0290006022b9000402780073
:1005900004034300ae02900004fa2000042ab800cd
:1005a0000503430086027800048fbe00048fbe005e
:1005b0000002eb00340888000002eb0054088800b9
:1005c0001e02be00402ade00050020000402780062
:1005d000740888001e02780064088800000000008b
:1005e000250480000410200004826200e00f520005
:1005f000fbff32008500a9000080fa000000060021
:100600000000fa004400200004408800940020000c
:10061000144088000002eb00244088000540800060
:10062000144080000482420024408800144080006e
:100630008402e8000440800004aab9008402780023
:10064000144080000482520024408800154080003d
:1006500004408000110009008402d80001027800e3
:1006600024408800054080001440800011000900eb
:100670008402d800010278002440880014408000e1
:100680006b22b90004027800244088000002eb00cd
:1006900024408800154080000440800011000900bb
:1006a0008402d8000002780024408800f400200072
:1006b000244088000540800044002000110009000b
:1006c0008402d8000002780084027800164080007e
:1006d00024002000110009000403d8000002780063
:1006e0000403780004408000110009000403d800ce
:1006f00001027800848242001440800066002000dd
:10070000110009000403d8000002780004824200ae
:1007100024408800144080006a02120024408800af
:10072000044080006f22b900840278007400200029
:10073000110009008402d8000102780024408800da
:10074000254080000440800004aab900040278001b
:1007500024408800154080000440800004826a0024
:1007600004f0a7000402ea000402ea004f22de00bf
:1007700024408800064080001540800014002000be
:10078000850f5300010035000002eb002440880073
:100790001540800004408000848f52000400340023
:1007a0000540800014408000848f52000200340015
:1007b00014002000010037000002eb0024408800f4
:1007c0000002eb00244088001540800004408000b7
:1007d00016002000848f5200010035000003eb005a
:1007e000054080001440800004826a0004f0a700e5
:1007f0000402ea000402ea004f22de001500200095
:10080000840f5300010035008002eb002540880072
:1008100014408000e40f52000800340005408000be
:100820001440800004aab90004027800e90f5200c5
:1008300002003c0014002000010037000002eb0021
:10084000244088000002eb00244088000002eb00f6
:1008500024408800f400200024408800f40f200089
:10086000244088000002eb002440880014408000ef
:0c0870006b026a0024408800ffff370084
:020000040000fa
:10087c00000800000600000000000000000000005e
:020000040000fa
:0200000401f009
:04000c0058ff000099
:020000040000fa
:0200000401f009
:04001000fbff0000f2
:020000040000fa
:0200000401f009
:040014005fff00008a
:020000040000fa
:0200000401f009
:04001c00ffff0000e2
:020000040000fa
:0200000401f009
:040020007fff00005e
:00000001FF
